{
  "_format": "hh-sol-artifact-1",
  "contractName": "Pool",
  "sourceName": "contracts/Pool.sol",
  "abi": [
    {
      "inputs": [
        {
          "internalType": "address",
          "name": "_deployaddress",
          "type": "address"
        },
        {
          "internalType": "address",
          "name": "_sDeployAddress",
          "type": "address"
        },
        {
          "internalType": "address",
          "name": "_ETHtokenAddress",
          "type": "address"
        }
      ],
      "stateMutability": "nonpayable",
      "type": "constructor"
    },
    {
      "inputs": [],
      "name": "ARBtokenAddress",
      "outputs": [
        {
          "internalType": "address",
          "name": "",
          "type": "address"
        }
      ],
      "stateMutability": "view",
      "type": "function"
    },
    {
      "inputs": [],
      "name": "ArbLpaddress",
      "outputs": [
        {
          "internalType": "address",
          "name": "",
          "type": "address"
        }
      ],
      "stateMutability": "view",
      "type": "function"
    },
    {
      "inputs": [],
      "name": "ETHtokenAddress",
      "outputs": [
        {
          "internalType": "address",
          "name": "",
          "type": "address"
        }
      ],
      "stateMutability": "view",
      "type": "function"
    },
    {
      "inputs": [],
      "name": "EthLpaddress",
      "outputs": [
        {
          "internalType": "address",
          "name": "",
          "type": "address"
        }
      ],
      "stateMutability": "view",
      "type": "function"
    },
    {
      "inputs": [
        {
          "internalType": "address",
          "name": "_userAccount",
          "type": "address"
        },
        {
          "internalType": "address",
          "name": "_factoryAddress",
          "type": "address"
        },
        {
          "internalType": "address",
          "name": "_differToken",
          "type": "address"
        },
        {
          "internalType": "uint256",
          "name": "_differAmount",
          "type": "uint256"
        }
      ],
      "name": "Swithdraw",
      "outputs": [],
      "stateMutability": "nonpayable",
      "type": "function"
    },
    {
      "inputs": [],
      "name": "USDTtokenAddress",
      "outputs": [
        {
          "internalType": "address",
          "name": "",
          "type": "address"
        }
      ],
      "stateMutability": "view",
      "type": "function"
    },
    {
      "inputs": [],
      "name": "UsdtLpaddress",
      "outputs": [
        {
          "internalType": "address",
          "name": "",
          "type": "address"
        }
      ],
      "stateMutability": "view",
      "type": "function"
    },
    {
      "inputs": [
        {
          "internalType": "address",
          "name": "_userAccount",
          "type": "address"
        },
        {
          "internalType": "address",
          "name": "_factoryAddress",
          "type": "address"
        },
        {
          "internalType": "address",
          "name": "_asdToken",
          "type": "address"
        }
      ],
      "name": "claimWithdraw",
      "outputs": [],
      "stateMutability": "nonpayable",
      "type": "function"
    },
    {
      "inputs": [
        {
          "internalType": "address",
          "name": "_userAccount",
          "type": "address"
        }
      ],
      "name": "depositEther",
      "outputs": [],
      "stateMutability": "payable",
      "type": "function"
    },
    {
      "inputs": [
        {
          "internalType": "address",
          "name": "_token1",
          "type": "address"
        },
        {
          "internalType": "uint256",
          "name": "_amount1",
          "type": "uint256"
        },
        {
          "internalType": "address",
          "name": "_token2",
          "type": "address"
        },
        {
          "internalType": "uint256",
          "name": "_amount2",
          "type": "uint256"
        },
        {
          "internalType": "address",
          "name": "_userAccount",
          "type": "address"
        },
        {
          "internalType": "address",
          "name": "_factoryAddress",
          "type": "address"
        }
      ],
      "name": "differLiquid",
      "outputs": [],
      "stateMutability": "nonpayable",
      "type": "function"
    },
    {
      "inputs": [
        {
          "internalType": "address",
          "name": "_token1",
          "type": "address"
        },
        {
          "internalType": "address",
          "name": "_token2",
          "type": "address"
        },
        {
          "internalType": "address",
          "name": "_contractAddress",
          "type": "address"
        }
      ],
      "name": "differLpPool",
      "outputs": [],
      "stateMutability": "nonpayable",
      "type": "function"
    },
    {
      "inputs": [
        {
          "internalType": "address",
          "name": "_userAccount",
          "type": "address"
        },
        {
          "internalType": "address",
          "name": "_factoryAddress",
          "type": "address"
        },
        {
          "internalType": "address",
          "name": "_differLp",
          "type": "address"
        },
        {
          "internalType": "uint256",
          "name": "_amount",
          "type": "uint256"
        }
      ],
      "name": "differLpWithdraw",
      "outputs": [],
      "stateMutability": "nonpayable",
      "type": "function"
    },
    {
      "inputs": [
        {
          "internalType": "address",
          "name": "_differLptoken",
          "type": "address"
        },
        {
          "internalType": "address",
          "name": "_userAccount",
          "type": "address"
        },
        {
          "internalType": "address",
          "name": "_factoryAddress",
          "type": "address"
        },
        {
          "internalType": "uint256",
          "name": "_amount",
          "type": "uint256"
        },
        {
          "internalType": "uint256",
          "name": "_month",
          "type": "uint256"
        },
        {
          "internalType": "address",
          "name": "_VASDtokenAddress",
          "type": "address"
        }
      ],
      "name": "differLpstaking",
      "outputs": [],
      "stateMutability": "nonpayable",
      "type": "function"
    },
    {
      "inputs": [],
      "name": "digiCount",
      "outputs": [
        {
          "internalType": "uint256",
          "name": "",
          "type": "uint256"
        }
      ],
      "stateMutability": "view",
      "type": "function"
    },
    {
      "inputs": [],
      "name": "firstAmount",
      "outputs": [
        {
          "internalType": "uint256",
          "name": "",
          "type": "uint256"
        }
      ],
      "stateMutability": "view",
      "type": "function"
    },
    {
      "inputs": [],
      "name": "firstNum",
      "outputs": [
        {
          "internalType": "uint256",
          "name": "",
          "type": "uint256"
        }
      ],
      "stateMutability": "view",
      "type": "function"
    },
    {
      "inputs": [],
      "name": "firstTokenMon",
      "outputs": [
        {
          "internalType": "uint256",
          "name": "",
          "type": "uint256"
        }
      ],
      "stateMutability": "view",
      "type": "function"
    },
    {
      "inputs": [],
      "name": "firstTokenName",
      "outputs": [
        {
          "internalType": "address",
          "name": "",
          "type": "address"
        }
      ],
      "stateMutability": "view",
      "type": "function"
    },
    {
      "inputs": [],
      "name": "getAmount",
      "outputs": [
        {
          "internalType": "uint256",
          "name": "",
          "type": "uint256"
        },
        {
          "internalType": "uint256",
          "name": "",
          "type": "uint256"
        }
      ],
      "stateMutability": "view",
      "type": "function"
    },
    {
      "inputs": [
        {
          "internalType": "uint256",
          "name": "number",
          "type": "uint256"
        }
      ],
      "name": "getDigitCount",
      "outputs": [
        {
          "internalType": "uint256",
          "name": "",
          "type": "uint256"
        }
      ],
      "stateMutability": "nonpayable",
      "type": "function"
    },
    {
      "inputs": [
        {
          "internalType": "address",
          "name": "_userAccount",
          "type": "address"
        },
        {
          "internalType": "address",
          "name": "_differLp",
          "type": "address"
        }
      ],
      "name": "getInfor",
      "outputs": [],
      "stateMutability": "nonpayable",
      "type": "function"
    },
    {
      "inputs": [
        {
          "internalType": "address",
          "name": "_differToken",
          "type": "address"
        }
      ],
      "name": "getToken",
      "outputs": [
        {
          "internalType": "uint256",
          "name": "",
          "type": "uint256"
        }
      ],
      "stateMutability": "view",
      "type": "function"
    },
    {
      "inputs": [],
      "name": "isPossible",
      "outputs": [
        {
          "internalType": "bool",
          "name": "",
          "type": "bool"
        }
      ],
      "stateMutability": "view",
      "type": "function"
    },
    {
      "inputs": [],
      "name": "liquidAddress",
      "outputs": [
        {
          "internalType": "address",
          "name": "",
          "type": "address"
        }
      ],
      "stateMutability": "view",
      "type": "function"
    },
    {
      "inputs": [],
      "name": "lqAmountARB",
      "outputs": [
        {
          "internalType": "uint256",
          "name": "",
          "type": "uint256"
        }
      ],
      "stateMutability": "view",
      "type": "function"
    },
    {
      "inputs": [],
      "name": "lqAmountASD",
      "outputs": [
        {
          "internalType": "uint256",
          "name": "",
          "type": "uint256"
        }
      ],
      "stateMutability": "view",
      "type": "function"
    },
    {
      "inputs": [],
      "name": "lqAmountETH",
      "outputs": [
        {
          "internalType": "uint256",
          "name": "",
          "type": "uint256"
        }
      ],
      "stateMutability": "view",
      "type": "function"
    },
    {
      "inputs": [],
      "name": "lqAmountUSDT",
      "outputs": [
        {
          "internalType": "uint256",
          "name": "",
          "type": "uint256"
        }
      ],
      "stateMutability": "view",
      "type": "function"
    },
    {
      "inputs": [],
      "name": "pairAddress",
      "outputs": [
        {
          "internalType": "address",
          "name": "",
          "type": "address"
        }
      ],
      "stateMutability": "view",
      "type": "function"
    },
    {
      "inputs": [],
      "name": "poolAddress",
      "outputs": [
        {
          "internalType": "address",
          "name": "",
          "type": "address"
        }
      ],
      "stateMutability": "view",
      "type": "function"
    },
    {
      "inputs": [
        {
          "internalType": "address",
          "name": "_differLptoken",
          "type": "address"
        },
        {
          "internalType": "uint256",
          "name": "_amount",
          "type": "uint256"
        },
        {
          "internalType": "address",
          "name": "_AsdToken",
          "type": "address"
        }
      ],
      "name": "refundAmount",
      "outputs": [],
      "stateMutability": "nonpayable",
      "type": "function"
    },
    {
      "inputs": [
        {
          "internalType": "address payable",
          "name": "recipient",
          "type": "address"
        },
        {
          "internalType": "uint256",
          "name": "amount",
          "type": "uint256"
        }
      ],
      "name": "refundEther",
      "outputs": [],
      "stateMutability": "nonpayable",
      "type": "function"
    },
    {
      "inputs": [
        {
          "internalType": "address",
          "name": "_differLptoken",
          "type": "address"
        },
        {
          "internalType": "uint256",
          "name": "_amount",
          "type": "uint256"
        },
        {
          "internalType": "address",
          "name": "_userAccount",
          "type": "address"
        },
        {
          "internalType": "address",
          "name": "_factoryAddress",
          "type": "address"
        },
        {
          "internalType": "address",
          "name": "_AsdToken",
          "type": "address"
        }
      ],
      "name": "removeLiquid",
      "outputs": [],
      "stateMutability": "nonpayable",
      "type": "function"
    },
    {
      "inputs": [
        {
          "internalType": "address",
          "name": "_userAccount",
          "type": "address"
        },
        {
          "internalType": "address",
          "name": "_factoryAddress",
          "type": "address"
        },
        {
          "internalType": "address",
          "name": "_differToken",
          "type": "address"
        },
        {
          "internalType": "uint256",
          "name": "_differAmount",
          "type": "uint256"
        }
      ],
      "name": "sDeposit",
      "outputs": [],
      "stateMutability": "nonpayable",
      "type": "function"
    },
    {
      "inputs": [],
      "name": "sDepositAddress",
      "outputs": [
        {
          "internalType": "address",
          "name": "",
          "type": "address"
        }
      ],
      "stateMutability": "view",
      "type": "function"
    },
    {
      "inputs": [],
      "name": "secondAmount",
      "outputs": [
        {
          "internalType": "uint256",
          "name": "",
          "type": "uint256"
        }
      ],
      "stateMutability": "view",
      "type": "function"
    },
    {
      "inputs": [],
      "name": "secondNum",
      "outputs": [
        {
          "internalType": "uint256",
          "name": "",
          "type": "uint256"
        }
      ],
      "stateMutability": "view",
      "type": "function"
    },
    {
      "inputs": [],
      "name": "stakingAddress",
      "outputs": [
        {
          "internalType": "address",
          "name": "",
          "type": "address"
        }
      ],
      "stateMutability": "view",
      "type": "function"
    },
    {
      "inputs": [],
      "name": "swapAddress",
      "outputs": [
        {
          "internalType": "address",
          "name": "",
          "type": "address"
        }
      ],
      "stateMutability": "view",
      "type": "function"
    },
    {
      "inputs": [
        {
          "internalType": "address",
          "name": "_diffrentToken",
          "type": "address"
        },
        {
          "internalType": "address",
          "name": "_AsdToken",
          "type": "address"
        },
        {
          "internalType": "address",
          "name": "_userAccount",
          "type": "address"
        },
        {
          "internalType": "address",
          "name": "_contractAddress",
          "type": "address"
        },
        {
          "internalType": "uint256",
          "name": "_amount",
          "type": "uint256"
        }
      ],
      "name": "swapToken",
      "outputs": [],
      "stateMutability": "nonpayable",
      "type": "function"
    },
    {
      "inputs": [],
      "name": "taxAddress",
      "outputs": [
        {
          "internalType": "address",
          "name": "",
          "type": "address"
        }
      ],
      "stateMutability": "view",
      "type": "function"
    },
    {
      "inputs": [
        {
          "internalType": "address",
          "name": "",
          "type": "address"
        },
        {
          "internalType": "address",
          "name": "",
          "type": "address"
        }
      ],
      "name": "testinfo",
      "outputs": [
        {
          "internalType": "bool",
          "name": "",
          "type": "bool"
        }
      ],
      "stateMutability": "view",
      "type": "function"
    },
    {
      "inputs": [],
      "name": "totalLpAmount",
      "outputs": [
        {
          "internalType": "uint256",
          "name": "",
          "type": "uint256"
        }
      ],
      "stateMutability": "view",
      "type": "function"
    },
    {
      "inputs": [],
      "name": "withdrawAsd",
      "outputs": [
        {
          "internalType": "uint256",
          "name": "",
          "type": "uint256"
        }
      ],
      "stateMutability": "view",
      "type": "function"
    },
    {
      "inputs": [],
      "name": "withdrawtoken1",
      "outputs": [
        {
          "internalType": "uint256",
          "name": "",
          "type": "uint256"
        }
      ],
      "stateMutability": "view",
      "type": "function"
    }
  ],
  "bytecode": "0x60806040523480156200001157600080fd5b5060405162003f9338038062003f938339818101604052810190620000379190620003c7565b306000806101000a81548173ffffffffffffffffffffffffffffffffffffffff021916908373ffffffffffffffffffffffffffffffffffffffff1602179055508273ffffffffffffffffffffffffffffffffffffffff1663ee136a566040518163ffffffff1660e01b815260040160606040518083038186803b158015620000be57600080fd5b505afa158015620000d3573d6000803e3d6000fd5b505050506040513d601f19601f82011682018060405250810190620000f99190620003c7565b6007600060086000600960008691906101000a81548173ffffffffffffffffffffffffffffffffffffffff021916908373ffffffffffffffffffffffffffffffffffffffff1602179055508591906101000a81548173ffffffffffffffffffffffffffffffffffffffff021916908373ffffffffffffffffffffffffffffffffffffffff1602179055508491906101000a81548173ffffffffffffffffffffffffffffffffffffffff021916908373ffffffffffffffffffffffffffffffffffffffff1602179055505050508173ffffffffffffffffffffffffffffffffffffffff1663b470e8e86040518163ffffffff1660e01b815260040160606040518083038186803b1580156200020c57600080fd5b505afa15801562000221573d6000803e3d6000fd5b505050506040513d601f19601f82011682018060405250810190620002479190620003c7565b600a6000600b6000600c60008691906101000a81548173ffffffffffffffffffffffffffffffffffffffff021916908373ffffffffffffffffffffffffffffffffffffffff1602179055508591906101000a81548173ffffffffffffffffffffffffffffffffffffffff021916908373ffffffffffffffffffffffffffffffffffffffff1602179055508491906101000a81548173ffffffffffffffffffffffffffffffffffffffff021916908373ffffffffffffffffffffffffffffffffffffffff16021790555050505080600360006101000a81548173ffffffffffffffffffffffffffffffffffffffff021916908373ffffffffffffffffffffffffffffffffffffffff16021790555050505062000423565b600080fd5b600073ffffffffffffffffffffffffffffffffffffffff82169050919050565b60006200038f8262000362565b9050919050565b620003a18162000382565b8114620003ad57600080fd5b50565b600081519050620003c18162000396565b92915050565b600080600060608486031215620003e357620003e26200035d565b5b6000620003f386828701620003b0565b93505060206200040686828701620003b0565b92505060406200041986828701620003b0565b9150509250925092565b613b6080620004336000396000f3fe6080604052600436106102715760003560e01c80635ced16d21161014f578063b2995865116100c1578063e319be0a1161007a578063e319be0a146108f1578063ebcde5f31461092e578063f0c1a72114610959578063fa82bec214610996578063fcc61718146109c1578063fe1218a6146109ec57610271565b8063b2995865146107f2578063b7bda68f1461081b578063caadbea014610846578063d321fe291461086f578063d5cf089b1461089b578063d7b4be24146108c657610271565b8063786180681161011357806378618068146106f45780637afb892e1461071f57806380f6d7821461074a5780638e54e40d146107755780639663d27c1461079e578063a8b08982146107c757610271565b80635ced16d21461061d5780636e13f9681461064857806371b881b71461067357806371dc44a51461069e578063741ac304146106c957610271565b80633416a4ee116101e85780634713b784116101ac5780634713b784146105185780634aac6772146105435780634e86443f1461056e5780635280212114610599578063532d7397146105b557806359770438146105e057610271565b80633416a4ee146104455780633d1b719f1461046e57806341a1f85b14610499578063428c24e2146104c457806343388b7f146104ef57610271565b806310d69c4f1161023a57806310d69c4f146103495780631453ade414610372578063169f97ae1461039b5780631755ff21146103c65780631d15546d146103f1578063330bbf101461041c57610271565b80622a6d2e14610276578063062887f8146102a1578063080a14f4146102cc57806308d4d479146102f55780630dd1d04e14610320575b600080fd5b34801561028257600080fd5b5061028b610a15565b6040516102989190612976565b60405180910390f35b3480156102ad57600080fd5b506102b6610a3b565b6040516102c391906129aa565b60405180910390f35b3480156102d857600080fd5b506102f360048036038101906102ee9190612a31565b610a41565b005b34801561030157600080fd5b5061030a610add565b60405161031791906129aa565b60405180910390f35b34801561032c57600080fd5b5061034760048036038101906103429190612aac565b610ae3565b005b34801561035557600080fd5b50610370600480360381019061036b9190612aff565b610b79565b005b34801561037e57600080fd5b5061039960048036038101906103949190612b8c565b610c18565b005b3480156103a757600080fd5b506103b0610cb1565b6040516103bd9190612976565b60405180910390f35b3480156103d257600080fd5b506103db610cd7565b6040516103e89190612976565b60405180910390f35b3480156103fd57600080fd5b50610406610cfb565b6040516104139190612976565b60405180910390f35b34801561042857600080fd5b50610443600480360381019061043e9190612bf3565b610d21565b005b34801561045157600080fd5b5061046c60048036038101906104679190612b8c565b610fae565b005b34801561047a57600080fd5b50610483611047565b6040516104909190612976565b60405180910390f35b3480156104a557600080fd5b506104ae61106d565b6040516104bb9190612976565b60405180910390f35b3480156104d057600080fd5b506104d9611093565b6040516104e691906129aa565b60405180910390f35b3480156104fb57600080fd5b5061051660048036038101906105119190612c33565b611099565b005b34801561052457600080fd5b5061052d6111e2565b60405161053a9190612976565b60405180910390f35b34801561054f57600080fd5b50610558611208565b60405161056591906129aa565b60405180910390f35b34801561057a57600080fd5b5061058361120e565b60405161059091906129aa565b60405180910390f35b6105b360048036038101906105ae9190612c86565b611214565b005b3480156105c157600080fd5b506105ca611437565b6040516105d791906129aa565b60405180910390f35b3480156105ec57600080fd5b5061060760048036038101906106029190612c86565b61143d565b60405161061491906129aa565b60405180910390f35b34801561062957600080fd5b506106326114cf565b60405161063f9190612976565b60405180910390f35b34801561065457600080fd5b5061065d6114f5565b60405161066a91906129aa565b60405180910390f35b34801561067f57600080fd5b506106886114fb565b6040516106959190612976565b60405180910390f35b3480156106aa57600080fd5b506106b3611521565b6040516106c091906129aa565b60405180910390f35b3480156106d557600080fd5b506106de611527565b6040516106eb91906129aa565b60405180910390f35b34801561070057600080fd5b5061070961152d565b60405161071691906129aa565b60405180910390f35b34801561072b57600080fd5b50610734611533565b6040516107419190612cce565b60405180910390f35b34801561075657600080fd5b5061075f611546565b60405161076c9190612976565b60405180910390f35b34801561078157600080fd5b5061079c60048036038101906107979190612d27565b61156c565b005b3480156107aa57600080fd5b506107c560048036038101906107c09190612d67565b6115fa565b005b3480156107d357600080fd5b506107dc611f97565b6040516107e99190612976565b60405180910390f35b3480156107fe57600080fd5b5061081960048036038101906108149190612b8c565b611fbd565b005b34801561082757600080fd5b50610830612056565b60405161083d9190612976565b60405180910390f35b34801561085257600080fd5b5061086d60048036038101906108689190612de2565b61207c565b005b34801561087b57600080fd5b50610884612604565b604051610892929190612e6f565b60405180910390f35b3480156108a757600080fd5b506108b0612615565b6040516108bd91906129aa565b60405180910390f35b3480156108d257600080fd5b506108db61261b565b6040516108e89190612976565b60405180910390f35b3480156108fd57600080fd5b5061091860048036038101906109139190612e98565b612641565b60405161092591906129aa565b60405180910390f35b34801561093a57600080fd5b506109436126b7565b6040516109509190612976565b60405180910390f35b34801561096557600080fd5b50610980600480360381019061097b9190612bf3565b6126dd565b60405161098d9190612cce565b60405180910390f35b3480156109a257600080fd5b506109ab61270c565b6040516109b891906129aa565b60405180910390f35b3480156109cd57600080fd5b506109d6612712565b6040516109e391906129aa565b60405180910390f35b3480156109f857600080fd5b50610a136004803603810190610a0e9190612aac565b612718565b005b601460009054906101000a900473ffffffffffffffffffffffffffffffffffffffff1681565b60135481565b600960009054906101000a900473ffffffffffffffffffffffffffffffffffffffff1673ffffffffffffffffffffffffffffffffffffffff166351b429a086868686866040518663ffffffff1660e01b8152600401610aa4959493929190612ec5565b600060405180830381600087803b158015610abe57600080fd5b505af1158015610ad2573d6000803e3d6000fd5b505050505050505050565b60195481565b600c60009054906101000a900473ffffffffffffffffffffffffffffffffffffffff1673ffffffffffffffffffffffffffffffffffffffff166302933b448484846040518463ffffffff1660e01b8152600401610b4293929190612f18565b600060405180830381600087803b158015610b5c57600080fd5b505af1158015610b70573d6000803e3d6000fd5b50505050505050565b600a60009054906101000a900473ffffffffffffffffffffffffffffffffffffffff1673ffffffffffffffffffffffffffffffffffffffff1663a7f8cd098787878787876040518763ffffffff1660e01b8152600401610bde96959493929190612f4f565b600060405180830381600087803b158015610bf857600080fd5b505af1158015610c0c573d6000803e3d6000fd5b50505050505050505050565b600a60009054906101000a900473ffffffffffffffffffffffffffffffffffffffff1673ffffffffffffffffffffffffffffffffffffffff1663a6c46bc2858585856040518563ffffffff1660e01b8152600401610c799493929190612fb0565b600060405180830381600087803b158015610c9357600080fd5b505af1158015610ca7573d6000803e3d6000fd5b5050505050505050565b600660009054906101000a900473ffffffffffffffffffffffffffffffffffffffff1681565b60008054906101000a900473ffffffffffffffffffffffffffffffffffffffff1681565b600160009054906101000a900473ffffffffffffffffffffffffffffffffffffffff1681565b600a60009054906101000a900473ffffffffffffffffffffffffffffffffffffffff1673ffffffffffffffffffffffffffffffffffffffff16639020783383836040518363ffffffff1660e01b8152600401610d7e929190612ff5565b600060405180830381600087803b158015610d9857600080fd5b505af1158015610dac573d6000803e3d6000fd5b505050506040513d6000823e3d601f19601f82011682018060405250810190610dd59190613264565b5050600a60009054906101000a900473ffffffffffffffffffffffffffffffffffffffff1673ffffffffffffffffffffffffffffffffffffffff166360d586f86040518163ffffffff1660e01b815260040160c060405180830381600087803b158015610e4157600080fd5b505af1158015610e55573d6000803e3d6000fd5b505050506040513d601f19601f82011682018060405250810190610e7991906132dc565b6012600060136000601460006015600060166000601760008c919050558b919050558a919050558991906101000a81548173ffffffffffffffffffffffffffffffffffffffff021916908373ffffffffffffffffffffffffffffffffffffffff16021790555088919050558791905055505050505050600a60009054906101000a900473ffffffffffffffffffffffffffffffffffffffff1673ffffffffffffffffffffffffffffffffffffffff1663c515205d6040518163ffffffff1660e01b8152600401602060405180830381600087803b158015610f5957600080fd5b505af1158015610f6d573d6000803e3d6000fd5b505050506040513d601f19601f82011682018060405250810190610f919190613395565b601160006101000a81548160ff0219169083151502179055505050565b600c60009054906101000a900473ffffffffffffffffffffffffffffffffffffffff1673ffffffffffffffffffffffffffffffffffffffff16633416a4ee858585856040518563ffffffff1660e01b815260040161100f9493929190612fb0565b600060405180830381600087803b15801561102957600080fd5b505af115801561103d573d6000803e3d6000fd5b5050505050505050565b600360009054906101000a900473ffffffffffffffffffffffffffffffffffffffff1681565b600c60009054906101000a900473ffffffffffffffffffffffffffffffffffffffff1681565b60125481565b600860009054906101000a900473ffffffffffffffffffffffffffffffffffffffff1673ffffffffffffffffffffffffffffffffffffffff1663d21a3e068484846040518463ffffffff1660e01b81526004016110f8939291906133c2565b600060405180830381600087803b15801561111257600080fd5b505af1158015611126573d6000803e3d6000fd5b50505050600860009054906101000a900473ffffffffffffffffffffffffffffffffffffffff1673ffffffffffffffffffffffffffffffffffffffff166336f6c6336040518163ffffffff1660e01b8152600401604080518083038186803b15801561119157600080fd5b505afa1580156111a5573d6000803e3d6000fd5b505050506040513d601f19601f820116820180604052508101906111c991906133f9565b600d6000600e6000849190505583919050555050505050565b600860009054906101000a900473ffffffffffffffffffffffffffffffffffffffff1681565b600d5481565b60165481565b600073ffffffffffffffffffffffffffffffffffffffff16600360009054906101000a900473ffffffffffffffffffffffffffffffffffffffff1673ffffffffffffffffffffffffffffffffffffffff1614156112a6576040517f08c379a000000000000000000000000000000000000000000000000000000000815260040161129d90613496565b60405180910390fd5b60006112b134612641565b9050600081600a6112c29190613618565b346112cd9190613692565b9050600360009054906101000a900473ffffffffffffffffffffffffffffffffffffffff1673ffffffffffffffffffffffffffffffffffffffff1663e234496382846040518363ffffffff1660e01b815260040161132c929190612e6f565b600060405180830381600087803b15801561134657600080fd5b505af115801561135a573d6000803e3d6000fd5b50505050600360009054906101000a900473ffffffffffffffffffffffffffffffffffffffff1673ffffffffffffffffffffffffffffffffffffffff166323b872dd600360009054906101000a900473ffffffffffffffffffffffffffffffffffffffff1685346040518463ffffffff1660e01b81526004016113df939291906136c3565b602060405180830381600087803b1580156113f957600080fd5b505af115801561140d573d6000803e3d6000fd5b505050506040513d601f19601f820116820180604052508101906114319190613395565b50505050565b600f5481565b60008173ffffffffffffffffffffffffffffffffffffffff166370a08231336040518263ffffffff1660e01b81526004016114789190612976565b60206040518083038186803b15801561149057600080fd5b505afa1580156114a4573d6000803e3d6000fd5b505050506040513d601f19601f820116820180604052508101906114c891906136fa565b9050919050565b600560009054906101000a900473ffffffffffffffffffffffffffffffffffffffff1681565b60175481565b600260009054906101000a900473ffffffffffffffffffffffffffffffffffffffff1681565b601c5481565b601b5481565b600e5481565b601160009054906101000a900460ff1681565b600960009054906101000a900473ffffffffffffffffffffffffffffffffffffffff1681565b804710156115af576040517f08c379a00000000000000000000000000000000000000000000000000000000081526004016115a690613773565b60405180910390fd5b8173ffffffffffffffffffffffffffffffffffffffff166108fc829081150290604051600060405180830381858888f193505050501580156115f5573d6000803e3d6000fd5b505050565b600860009054906101000a900473ffffffffffffffffffffffffffffffffffffffff1673ffffffffffffffffffffffffffffffffffffffff166308bac40286868686866040518663ffffffff1660e01b815260040161165d959493929190613793565b600060405180830381600087803b15801561167757600080fd5b505af115801561168b573d6000803e3d6000fd5b50505050600860009054906101000a900473ffffffffffffffffffffffffffffffffffffffff1673ffffffffffffffffffffffffffffffffffffffff1663607c94f06040518163ffffffff1660e01b815260040160c06040518083038186803b1580156116f757600080fd5b505afa15801561170b573d6000803e3d6000fd5b505050506040513d601f19601f8201168201806040525081019061172f91906137e6565b600d6000600e6000600f60006001600060026000600360008c91906101000a81548173ffffffffffffffffffffffffffffffffffffffff021916908373ffffffffffffffffffffffffffffffffffffffff1602179055508b91906101000a81548173ffffffffffffffffffffffffffffffffffffffff021916908373ffffffffffffffffffffffffffffffffffffffff1602179055508a91906101000a81548173ffffffffffffffffffffffffffffffffffffffff021916908373ffffffffffffffffffffffffffffffffffffffff16021790555089919050558891905055879190505550505050505060008573ffffffffffffffffffffffffffffffffffffffff166306fdde036040518163ffffffff1660e01b815260040160006040518083038186803b15801561186157600080fd5b505afa158015611875573d6000803e3d6000fd5b505050506040513d6000823e3d601f19601f8201168201806040525081019061189e919061394c565b90506000670de0b6b3a7640000600d546118b89190613692565b90506000670de0b6b3a7640000600e546118d29190613692565b905080601c60008282546118e69190613995565b9250508190555061192c836040518060400160405280600581526020017f4152424c5000000000000000000000000000000000000000000000000000000081525061291a565b15611b235781601860008873ffffffffffffffffffffffffffffffffffffffff1673ffffffffffffffffffffffffffffffffffffffff1681526020019081526020016000206000600160009054906101000a900473ffffffffffffffffffffffffffffffffffffffff1673ffffffffffffffffffffffffffffffffffffffff1673ffffffffffffffffffffffffffffffffffffffff16815260200190815260200160002060008282546119df9190613995565b9250508190555080601860008873ffffffffffffffffffffffffffffffffffffffff1673ffffffffffffffffffffffffffffffffffffffff16815260200190815260200160002060008673ffffffffffffffffffffffffffffffffffffffff1673ffffffffffffffffffffffffffffffffffffffff1681526020019081526020016000206000828254611a729190613995565b92505081905550601860008773ffffffffffffffffffffffffffffffffffffffff1673ffffffffffffffffffffffffffffffffffffffff1681526020019081526020016000206000600160009054906101000a900473ffffffffffffffffffffffffffffffffffffffff1673ffffffffffffffffffffffffffffffffffffffff1673ffffffffffffffffffffffffffffffffffffffff16815260200190815260200160002054601981905550611f8d565b611b62836040518060400160405280600681526020017f555344544c50000000000000000000000000000000000000000000000000000081525061291a565b15611d595781601860008873ffffffffffffffffffffffffffffffffffffffff1673ffffffffffffffffffffffffffffffffffffffff1681526020019081526020016000206000600260009054906101000a900473ffffffffffffffffffffffffffffffffffffffff1673ffffffffffffffffffffffffffffffffffffffff1673ffffffffffffffffffffffffffffffffffffffff1681526020019081526020016000206000828254611c159190613995565b9250508190555080601860008873ffffffffffffffffffffffffffffffffffffffff1673ffffffffffffffffffffffffffffffffffffffff16815260200190815260200160002060008673ffffffffffffffffffffffffffffffffffffffff1673ffffffffffffffffffffffffffffffffffffffff1681526020019081526020016000206000828254611ca89190613995565b92505081905550601860008773ffffffffffffffffffffffffffffffffffffffff1673ffffffffffffffffffffffffffffffffffffffff1681526020019081526020016000206000600260009054906101000a900473ffffffffffffffffffffffffffffffffffffffff1673ffffffffffffffffffffffffffffffffffffffff1673ffffffffffffffffffffffffffffffffffffffff16815260200190815260200160002054601a81905550611f8c565b611d98836040518060400160405280600581526020017f4554484c5000000000000000000000000000000000000000000000000000000081525061291a565b15611f8b5781601860008873ffffffffffffffffffffffffffffffffffffffff1673ffffffffffffffffffffffffffffffffffffffff1681526020019081526020016000206000600360009054906101000a900473ffffffffffffffffffffffffffffffffffffffff1673ffffffffffffffffffffffffffffffffffffffff1673ffffffffffffffffffffffffffffffffffffffff1681526020019081526020016000206000828254611e4b9190613995565b9250508190555080601860008873ffffffffffffffffffffffffffffffffffffffff1673ffffffffffffffffffffffffffffffffffffffff16815260200190815260200160002060008673ffffffffffffffffffffffffffffffffffffffff1673ffffffffffffffffffffffffffffffffffffffff1681526020019081526020016000206000828254611ede9190613995565b92505081905550601860008773ffffffffffffffffffffffffffffffffffffffff1673ffffffffffffffffffffffffffffffffffffffff1681526020019081526020016000206000600360009054906101000a900473ffffffffffffffffffffffffffffffffffffffff1673ffffffffffffffffffffffffffffffffffffffff1673ffffffffffffffffffffffffffffffffffffffff16815260200190815260200160002054601b819055505b5b5b5050505050505050565b600760009054906101000a900473ffffffffffffffffffffffffffffffffffffffff1681565b600c60009054906101000a900473ffffffffffffffffffffffffffffffffffffffff1673ffffffffffffffffffffffffffffffffffffffff1663b90cdbb5858585856040518563ffffffff1660e01b815260040161201e9493929190612fb0565b600060405180830381600087803b15801561203857600080fd5b505af115801561204c573d6000803e3d6000fd5b5050505050505050565b600b60009054906101000a900473ffffffffffffffffffffffffffffffffffffffff1681565b600860009054906101000a900473ffffffffffffffffffffffffffffffffffffffff1673ffffffffffffffffffffffffffffffffffffffff1663d2dcb80b878787878787600760009054906101000a900473ffffffffffffffffffffffffffffffffffffffff166040518863ffffffff1660e01b815260040161210597969594939291906139c9565b600060405180830381600087803b15801561211f57600080fd5b505af1158015612133573d6000803e3d6000fd5b505050506000670de0b6b3a76400008661214d9190613692565b90506000670de0b6b3a7640000856121659190613692565b905081601860008673ffffffffffffffffffffffffffffffffffffffff1673ffffffffffffffffffffffffffffffffffffffff16815260200190815260200160002060008a73ffffffffffffffffffffffffffffffffffffffff1673ffffffffffffffffffffffffffffffffffffffff16815260200190815260200160002060008282546121f39190613a38565b9250508190555080601860008673ffffffffffffffffffffffffffffffffffffffff1673ffffffffffffffffffffffffffffffffffffffff16815260200190815260200160002060008873ffffffffffffffffffffffffffffffffffffffff1673ffffffffffffffffffffffffffffffffffffffff16815260200190815260200160002060008282546122869190613a38565b92505081905550601860008573ffffffffffffffffffffffffffffffffffffffff1673ffffffffffffffffffffffffffffffffffffffff16815260200190815260200160002060008773ffffffffffffffffffffffffffffffffffffffff1673ffffffffffffffffffffffffffffffffffffffff16815260200190815260200160002054601c8190555060008873ffffffffffffffffffffffffffffffffffffffff166306fdde036040518163ffffffff1660e01b815260040160006040518083038186803b15801561235857600080fd5b505afa15801561236c573d6000803e3d6000fd5b505050506040513d6000823e3d601f19601f82011682018060405250810190612395919061394c565b90506123d6816040518060400160405280600381526020017f415242000000000000000000000000000000000000000000000000000000000081525061291a565b1561246357601860008673ffffffffffffffffffffffffffffffffffffffff1673ffffffffffffffffffffffffffffffffffffffff16815260200190815260200160002060008a73ffffffffffffffffffffffffffffffffffffffff1673ffffffffffffffffffffffffffffffffffffffff168152602001908152602001600020546019819055506125f9565b6124a2816040518060400160405280600481526020017f555344540000000000000000000000000000000000000000000000000000000081525061291a565b1561252f57601860008673ffffffffffffffffffffffffffffffffffffffff1673ffffffffffffffffffffffffffffffffffffffff16815260200190815260200160002060008a73ffffffffffffffffffffffffffffffffffffffff1673ffffffffffffffffffffffffffffffffffffffff16815260200190815260200160002054601a819055506125f8565b61256e816040518060400160405280600381526020017f455448000000000000000000000000000000000000000000000000000000000081525061291a565b156125f757601860008673ffffffffffffffffffffffffffffffffffffffff1673ffffffffffffffffffffffffffffffffffffffff16815260200190815260200160002060008a73ffffffffffffffffffffffffffffffffffffffff1673ffffffffffffffffffffffffffffffffffffffff16815260200190815260200160002054601b819055505b5b5b505050505050505050565b600080600d54600e54915091509091565b60155481565b600a60009054906101000a900473ffffffffffffffffffffffffffffffffffffffff1681565b60008082141561265457600190506126b2565b6000806010819055505b60008311156126a157808061267290613a8e565b9150506010600081548092919061268890613a8e565b9190505550600a8361269a9190613692565b925061265e565b6001816126ae9190613995565b9150505b919050565b600460009054906101000a900473ffffffffffffffffffffffffffffffffffffffff1681565b601e6020528160005260406000206020528060005260406000206000915091509054906101000a900460ff1681565b60105481565b601a5481565b600760009054906101000a900473ffffffffffffffffffffffffffffffffffffffff1673ffffffffffffffffffffffffffffffffffffffff16630b026fd48484846040518463ffffffff1660e01b815260040161277793929190612f18565b600060405180830381600087803b15801561279157600080fd5b505af11580156127a5573d6000803e3d6000fd5b50505050600760009054906101000a900473ffffffffffffffffffffffffffffffffffffffff1673ffffffffffffffffffffffffffffffffffffffff1663d1e9a5fd6040518163ffffffff1660e01b815260040160606040518083038186803b15801561281157600080fd5b505afa158015612825573d6000803e3d6000fd5b505050506040513d601f19601f820116820180604052508101906128499190613ad7565b6004600060056000600660008691906101000a81548173ffffffffffffffffffffffffffffffffffffffff021916908373ffffffffffffffffffffffffffffffffffffffff1602179055508591906101000a81548173ffffffffffffffffffffffffffffffffffffffff021916908373ffffffffffffffffffffffffffffffffffffffff1602179055508491906101000a81548173ffffffffffffffffffffffffffffffffffffffff021916908373ffffffffffffffffffffffffffffffffffffffff160217905550505050505050565b60008180519060200120838051906020012014905092915050565b600073ffffffffffffffffffffffffffffffffffffffff82169050919050565b600061296082612935565b9050919050565b61297081612955565b82525050565b600060208201905061298b6000830184612967565b92915050565b6000819050919050565b6129a481612991565b82525050565b60006020820190506129bf600083018461299b565b92915050565b6000604051905090565b600080fd5b600080fd5b6129e281612955565b81146129ed57600080fd5b50565b6000813590506129ff816129d9565b92915050565b612a0e81612991565b8114612a1957600080fd5b50565b600081359050612a2b81612a05565b92915050565b600080600080600060a08688031215612a4d57612a4c6129cf565b5b6000612a5b888289016129f0565b9550506020612a6c888289016129f0565b9450506040612a7d888289016129f0565b9350506060612a8e888289016129f0565b9250506080612a9f88828901612a1c565b9150509295509295909350565b600080600060608486031215612ac557612ac46129cf565b5b6000612ad3868287016129f0565b9350506020612ae4868287016129f0565b9250506040612af5868287016129f0565b9150509250925092565b60008060008060008060c08789031215612b1c57612b1b6129cf565b5b6000612b2a89828a016129f0565b9650506020612b3b89828a016129f0565b9550506040612b4c89828a016129f0565b9450506060612b5d89828a01612a1c565b9350506080612b6e89828a01612a1c565b92505060a0612b7f89828a016129f0565b9150509295509295509295565b60008060008060808587031215612ba657612ba56129cf565b5b6000612bb4878288016129f0565b9450506020612bc5878288016129f0565b9350506040612bd6878288016129f0565b9250506060612be787828801612a1c565b91505092959194509250565b60008060408385031215612c0a57612c096129cf565b5b6000612c18858286016129f0565b9250506020612c29858286016129f0565b9150509250929050565b600080600060608486031215612c4c57612c4b6129cf565b5b6000612c5a868287016129f0565b9350506020612c6b86828701612a1c565b9250506040612c7c868287016129f0565b9150509250925092565b600060208284031215612c9c57612c9b6129cf565b5b6000612caa848285016129f0565b91505092915050565b60008115159050919050565b612cc881612cb3565b82525050565b6000602082019050612ce36000830184612cbf565b92915050565b6000612cf482612935565b9050919050565b612d0481612ce9565b8114612d0f57600080fd5b50565b600081359050612d2181612cfb565b92915050565b60008060408385031215612d3e57612d3d6129cf565b5b6000612d4c85828601612d12565b9250506020612d5d85828601612a1c565b9150509250929050565b600080600080600060a08688031215612d8357612d826129cf565b5b6000612d91888289016129f0565b9550506020612da288828901612a1c565b9450506040612db3888289016129f0565b9350506060612dc4888289016129f0565b9250506080612dd5888289016129f0565b9150509295509295909350565b60008060008060008060c08789031215612dff57612dfe6129cf565b5b6000612e0d89828a016129f0565b9650506020612e1e89828a01612a1c565b9550506040612e2f89828a016129f0565b9450506060612e4089828a01612a1c565b9350506080612e5189828a016129f0565b92505060a0612e6289828a016129f0565b9150509295509295509295565b6000604082019050612e84600083018561299b565b612e91602083018461299b565b9392505050565b600060208284031215612eae57612ead6129cf565b5b6000612ebc84828501612a1c565b91505092915050565b600060a082019050612eda6000830188612967565b612ee76020830187612967565b612ef46040830186612967565b612f016060830185612967565b612f0e608083018461299b565b9695505050505050565b6000606082019050612f2d6000830186612967565b612f3a6020830185612967565b612f476040830184612967565b949350505050565b600060c082019050612f646000830189612967565b612f716020830188612967565b612f7e6040830187612967565b612f8b606083018661299b565b612f98608083018561299b565b612fa560a0830184612967565b979650505050505050565b6000608082019050612fc56000830187612967565b612fd26020830186612967565b612fdf6040830185612967565b612fec606083018461299b565b95945050505050565b600060408201905061300a6000830185612967565b6130176020830184612967565b9392505050565b600080fd5b6000601f19601f8301169050919050565b7f4e487b7100000000000000000000000000000000000000000000000000000000600052604160045260246000fd5b61306c82613023565b810181811067ffffffffffffffff8211171561308b5761308a613034565b5b80604052505050565b600061309e6129c5565b90506130aa8282613063565b919050565b600067ffffffffffffffff8211156130ca576130c9613034565b5b602082029050602081019050919050565b600080fd5b6000815190506130ef816129d9565b92915050565b6000613108613103846130af565b613094565b9050808382526020820190506020840283018581111561312b5761312a6130db565b5b835b81811015613154578061314088826130e0565b84526020840193505060208101905061312d565b5050509392505050565b600082601f8301126131735761317261301e565b5b81516131838482602086016130f5565b91505092915050565b600067ffffffffffffffff8211156131a7576131a6613034565b5b602082029050602081019050919050565b6000815190506131c781612a05565b92915050565b60006131e06131db8461318c565b613094565b90508083825260208201905060208402830185811115613203576132026130db565b5b835b8181101561322c578061321888826131b8565b845260208401935050602081019050613205565b5050509392505050565b600082601f83011261324b5761324a61301e565b5b815161325b8482602086016131cd565b91505092915050565b6000806040838503121561327b5761327a6129cf565b5b600083015167ffffffffffffffff811115613299576132986129d4565b5b6132a58582860161315e565b925050602083015167ffffffffffffffff8111156132c6576132c56129d4565b5b6132d285828601613236565b9150509250929050565b60008060008060008060c087890312156132f9576132f86129cf565b5b600061330789828a016131b8565b965050602061331889828a016131b8565b955050604061332989828a016130e0565b945050606061333a89828a016131b8565b935050608061334b89828a016131b8565b92505060a061335c89828a016131b8565b9150509295509295509295565b61337281612cb3565b811461337d57600080fd5b50565b60008151905061338f81613369565b92915050565b6000602082840312156133ab576133aa6129cf565b5b60006133b984828501613380565b91505092915050565b60006060820190506133d76000830186612967565b6133e4602083018561299b565b6133f16040830184612967565b949350505050565b600080604083850312156134105761340f6129cf565b5b600061341e858286016131b8565b925050602061342f858286016131b8565b9150509250929050565b600082825260208201905092915050565b7f636865636b2074686520746f6b656e206d616b65640000000000000000000000600082015250565b6000613480601583613439565b915061348b8261344a565b602082019050919050565b600060208201905081810360008301526134af81613473565b9050919050565b7f4e487b7100000000000000000000000000000000000000000000000000000000600052601160045260246000fd5b60008160011c9050919050565b6000808291508390505b600185111561353c57808604811115613518576135176134b6565b5b60018516156135275780820291505b8081029050613535856134e5565b94506134fc565b94509492505050565b6000826135555760019050613611565b816135635760009050613611565b81600181146135795760028114613583576135b2565b6001915050613611565b60ff841115613595576135946134b6565b5b8360020a9150848211156135ac576135ab6134b6565b5b50613611565b5060208310610133831016604e8410600b84101617156135e75782820a9050838111156135e2576135e16134b6565b5b613611565b6135f484848460016134f2565b9250905081840481111561360b5761360a6134b6565b5b81810290505b9392505050565b600061362382612991565b915061362e83612991565b925061365b7fffffffffffffffffffffffffffffffffffffffffffffffffffffffffffffffff8484613545565b905092915050565b7f4e487b7100000000000000000000000000000000000000000000000000000000600052601260045260246000fd5b600061369d82612991565b91506136a883612991565b9250826136b8576136b7613663565b5b828204905092915050565b60006060820190506136d86000830186612967565b6136e56020830185612967565b6136f2604083018461299b565b949350505050565b6000602082840312156137105761370f6129cf565b5b600061371e848285016131b8565b91505092915050565b7f4e6f7420656e6f7567682045544820696e20636f6e7472616374000000000000600082015250565b600061375d601a83613439565b915061376882613727565b602082019050919050565b6000602082019050818103600083015261378c81613750565b9050919050565b600060a0820190506137a86000830188612967565b6137b5602083018761299b565b6137c26040830186612967565b6137cf6060830185612967565b6137dc6080830184612967565b9695505050505050565b60008060008060008060c08789031215613803576138026129cf565b5b600061381189828a016131b8565b965050602061382289828a016131b8565b955050604061383389828a016131b8565b945050606061384489828a016130e0565b935050608061385589828a016130e0565b92505060a061386689828a016130e0565b9150509295509295509295565b600080fd5b600067ffffffffffffffff82111561389357613892613034565b5b61389c82613023565b9050602081019050919050565b60005b838110156138c75780820151818401526020810190506138ac565b838111156138d6576000848401525b50505050565b60006138ef6138ea84613878565b613094565b90508281526020810184848401111561390b5761390a613873565b5b6139168482856138a9565b509392505050565b600082601f8301126139335761393261301e565b5b81516139438482602086016138dc565b91505092915050565b600060208284031215613962576139616129cf565b5b600082015167ffffffffffffffff8111156139805761397f6129d4565b5b61398c8482850161391e565b91505092915050565b60006139a082612991565b91506139ab83612991565b9250828210156139be576139bd6134b6565b5b828203905092915050565b600060e0820190506139de600083018a612967565b6139eb602083018961299b565b6139f86040830188612967565b613a05606083018761299b565b613a126080830186612967565b613a1f60a0830185612967565b613a2c60c0830184612967565b98975050505050505050565b6000613a4382612991565b9150613a4e83612991565b9250827fffffffffffffffffffffffffffffffffffffffffffffffffffffffffffffffff03821115613a8357613a826134b6565b5b828201905092915050565b6000613a9982612991565b91507fffffffffffffffffffffffffffffffffffffffffffffffffffffffffffffffff821415613acc57613acb6134b6565b5b600182019050919050565b600080600060608486031215613af057613aef6129cf565b5b6000613afe868287016130e0565b9350506020613b0f868287016130e0565b9250506040613b20868287016130e0565b915050925092509256fea2646970667358221220f70241a2427f577ab9a92a99dcc403eb907cecf1caefa063c336d4dd1c492edf64736f6c63430008090033",
  "linkReferences": {},
  "deployedLinkReferences": {}
}