{
  "_format": "hh-sol-artifact-1",
  "contractName": "Sdeposit",
  "sourceName": "contracts/Sdeposit.sol",
  "abi": [
    {
      "inputs": [],
      "stateMutability": "nonpayable",
      "type": "constructor"
    },
    {
      "inputs": [],
      "name": "Month",
      "outputs": [
        {
          "internalType": "uint256",
          "name": "",
          "type": "uint256"
        }
      ],
      "stateMutability": "view",
      "type": "function"
    },
    {
      "inputs": [],
      "name": "accountBalance",
      "outputs": [
        {
          "internalType": "uint256",
          "name": "",
          "type": "uint256"
        }
      ],
      "stateMutability": "view",
      "type": "function"
    },
    {
      "inputs": [],
      "name": "checkAmount",
      "outputs": [
        {
          "internalType": "uint256",
          "name": "",
          "type": "uint256"
        }
      ],
      "stateMutability": "view",
      "type": "function"
    },
    {
      "inputs": [
        {
          "internalType": "address",
          "name": "_userAccount",
          "type": "address"
        }
      ],
      "name": "claimAmountcheck",
      "outputs": [],
      "stateMutability": "nonpayable",
      "type": "function"
    },
    {
      "inputs": [
        {
          "internalType": "address",
          "name": "",
          "type": "address"
        }
      ],
      "name": "depositInfo",
      "outputs": [
        {
          "internalType": "address",
          "name": "differToken",
          "type": "address"
        },
        {
          "internalType": "uint256",
          "name": "depositAmount",
          "type": "uint256"
        },
        {
          "internalType": "uint256",
          "name": "deposittime",
          "type": "uint256"
        }
      ],
      "stateMutability": "view",
      "type": "function"
    },
    {
      "inputs": [
        {
          "internalType": "address",
          "name": "_userAccount",
          "type": "address"
        },
        {
          "internalType": "address",
          "name": "_differToken",
          "type": "address"
        }
      ],
      "name": "getAccountBalance",
      "outputs": [
        {
          "internalType": "uint256",
          "name": "",
          "type": "uint256"
        }
      ],
      "stateMutability": "nonpayable",
      "type": "function"
    },
    {
      "inputs": [],
      "name": "returnValue",
      "outputs": [
        {
          "internalType": "uint256",
          "name": "",
          "type": "uint256"
        }
      ],
      "stateMutability": "view",
      "type": "function"
    },
    {
      "inputs": [
        {
          "internalType": "address",
          "name": "_userAccount",
          "type": "address"
        },
        {
          "internalType": "address",
          "name": "_factoryAddress",
          "type": "address"
        },
        {
          "internalType": "address",
          "name": "_asdToken",
          "type": "address"
        }
      ],
      "name": "sClaim",
      "outputs": [],
      "stateMutability": "nonpayable",
      "type": "function"
    },
    {
      "inputs": [
        {
          "internalType": "address",
          "name": "_userAccount",
          "type": "address"
        },
        {
          "internalType": "address",
          "name": "_factoryAddress",
          "type": "address"
        },
        {
          "internalType": "address",
          "name": "_differToken",
          "type": "address"
        },
        {
          "internalType": "uint256",
          "name": "_differAmount",
          "type": "uint256"
        }
      ],
      "name": "sDeposit",
      "outputs": [],
      "stateMutability": "nonpayable",
      "type": "function"
    },
    {
      "inputs": [],
      "name": "tMonth",
      "outputs": [
        {
          "internalType": "uint256",
          "name": "",
          "type": "uint256"
        }
      ],
      "stateMutability": "view",
      "type": "function"
    },
    {
      "inputs": [],
      "name": "test2Month",
      "outputs": [
        {
          "internalType": "uint256",
          "name": "",
          "type": "uint256"
        }
      ],
      "stateMutability": "view",
      "type": "function"
    },
    {
      "inputs": [],
      "name": "test3Month",
      "outputs": [
        {
          "internalType": "uint256",
          "name": "",
          "type": "uint256"
        }
      ],
      "stateMutability": "view",
      "type": "function"
    },
    {
      "inputs": [],
      "name": "testMonth",
      "outputs": [
        {
          "internalType": "uint256",
          "name": "",
          "type": "uint256"
        }
      ],
      "stateMutability": "view",
      "type": "function"
    },
    {
      "inputs": [],
      "name": "thirdMonth",
      "outputs": [
        {
          "internalType": "uint256",
          "name": "",
          "type": "uint256"
        }
      ],
      "stateMutability": "view",
      "type": "function"
    },
    {
      "inputs": [
        {
          "internalType": "address",
          "name": "_userAccount",
          "type": "address"
        },
        {
          "internalType": "address",
          "name": "_factoryAddress",
          "type": "address"
        },
        {
          "internalType": "address",
          "name": "_differToken",
          "type": "address"
        },
        {
          "internalType": "uint256",
          "name": "_differAmount",
          "type": "uint256"
        }
      ],
      "name": "withDrawOneToken",
      "outputs": [],
      "stateMutability": "nonpayable",
      "type": "function"
    }
  ],
  "bytecode": "0x60806040526005600055607860015561012c60025562278d00600355600354600261002a919061008a565b600455600354600361003c919061008a565b60055534801561004b57600080fd5b506100e4565b6000819050919050565b7f4e487b7100000000000000000000000000000000000000000000000000000000600052601160045260246000fd5b600061009582610051565b91506100a083610051565b9250817fffffffffffffffffffffffffffffffffffffffffffffffffffffffffffffffff04831182151516156100d9576100d861005b565b5b828202905092915050565b610fc8806100f36000396000f3fe608060405234801561001057600080fd5b50600436106100f55760003560e01c8063853b64c611610097578063b90cdbb511610066578063b90cdbb514610264578063c2d70d9414610280578063ccc6bc441461029e578063ce6c6680146102bc576100f5565b8063853b64c6146101ee578063990c8f791461020a578063a5ea08a214610228578063b0a1c1c414610246576100f5565b80633e3af566116100d35780633e3af56614610150578063587675e81461016e578063634459891461019e57806382cad903146101d0576100f5565b806302933b44146100fa578063122a7925146101165780633416a4ee14610134575b600080fd5b610114600480360381019061010f9190610b8d565b6102da565b005b61011e610579565b60405161012b9190610bf9565b60405180910390f35b61014e60048036038101906101499190610c40565b61057f565b005b61015861077f565b6040516101659190610bf9565b60405180910390f35b61018860048036038101906101839190610ca7565b610785565b6040516101959190610bf9565b60405180910390f35b6101b860048036038101906101b39190610ce7565b610872565b6040516101c793929190610d23565b60405180910390f35b6101d86108bc565b6040516101e59190610bf9565b60405180910390f35b61020860048036038101906102039190610ce7565b6108c2565b005b6102126109ca565b60405161021f9190610bf9565b60405180910390f35b6102306109d4565b60405161023d9190610bf9565b60405180910390f35b61024e6109da565b60405161025b9190610bf9565b60405180910390f35b61027e60048036038101906102799190610c40565b6109e0565b005b610288610b18565b6040516102959190610bf9565b60405180910390f35b6102a6610b1e565b6040516102b39190610bf9565b60405180910390f35b6102c4610b24565b6040516102d19190610bf9565b60405180910390f35b6000600860008573ffffffffffffffffffffffffffffffffffffffff1673ffffffffffffffffffffffffffffffffffffffff1681526020019081526020016000206001015490506000600a826103309190610db8565b90506000600860008773ffffffffffffffffffffffffffffffffffffffff1673ffffffffffffffffffffffffffffffffffffffff168152602001908152602001600020600201549050600054816103879190610de9565b42101580156103a257506001548161039f9190610de9565b42105b156104ca578373ffffffffffffffffffffffffffffffffffffffff1663095ea7b330846040518363ffffffff1660e01b81526004016103e2929190610e3f565b602060405180830381600087803b1580156103fc57600080fd5b505af1158015610410573d6000803e3d6000fd5b505050506040513d601f19601f820116820180604052508101906104349190610ea0565b508373ffffffffffffffffffffffffffffffffffffffff166323b872dd8688856040518463ffffffff1660e01b815260040161047293929190610ecd565b602060405180830381600087803b15801561048c57600080fd5b505af11580156104a0573d6000803e3d6000fd5b505050506040513d601f19601f820116820180604052508101906104c49190610ea0565b50610571565b6001544210610570578373ffffffffffffffffffffffffffffffffffffffff166323b872dd86888560026104fe9190610f04565b6040518463ffffffff1660e01b815260040161051c93929190610ecd565b602060405180830381600087803b15801561053657600080fd5b505af115801561054a573d6000803e3d6000fd5b505050506040513d601f19601f8201168201806040525081019061056e9190610ea0565b505b5b505050505050565b60005481565b81600860008673ffffffffffffffffffffffffffffffffffffffff1673ffffffffffffffffffffffffffffffffffffffff16815260200190815260200160002060000160006101000a81548173ffffffffffffffffffffffffffffffffffffffff021916908373ffffffffffffffffffffffffffffffffffffffff16021790555080600860008673ffffffffffffffffffffffffffffffffffffffff1673ffffffffffffffffffffffffffffffffffffffff16815260200190815260200160002060010160008282546106529190610de9565b9250508190555042600860008673ffffffffffffffffffffffffffffffffffffffff1673ffffffffffffffffffffffffffffffffffffffff16815260200190815260200160002060020181905550600860008573ffffffffffffffffffffffffffffffffffffffff1673ffffffffffffffffffffffffffffffffffffffff168152602001908152602001600020600101546006819055508173ffffffffffffffffffffffffffffffffffffffff166323b872dd8585846040518463ffffffff1660e01b815260040161072693929190610ecd565b602060405180830381600087803b15801561074057600080fd5b505af1158015610754573d6000803e3d6000fd5b505050506040513d601f19601f820116820180604052508101906107789190610ea0565b5050505050565b60015481565b60008173ffffffffffffffffffffffffffffffffffffffff16600860008573ffffffffffffffffffffffffffffffffffffffff1673ffffffffffffffffffffffffffffffffffffffff16815260200190815260200160002060000160009054906101000a900473ffffffffffffffffffffffffffffffffffffffff1673ffffffffffffffffffffffffffffffffffffffff16141561086757600860008473ffffffffffffffffffffffffffffffffffffffff1673ffffffffffffffffffffffffffffffffffffffff168152602001908152602001600020600101546006819055505b600654905092915050565b60086020528060005260406000206000915090508060000160009054906101000a900473ffffffffffffffffffffffffffffffffffffffff16908060010154908060020154905083565b60055481565b6000600860008373ffffffffffffffffffffffffffffffffffffffff1673ffffffffffffffffffffffffffffffffffffffff1681526020019081526020016000206001015490506000600a826109189190610db8565b90506000600860008573ffffffffffffffffffffffffffffffffffffffff1673ffffffffffffffffffffffffffffffffffffffff1681526020019081526020016000206002015490506000548161096f9190610de9565b421015801561098a5750600154816109879190610de9565b42105b1561099b57816007819055506109c4565b600154816109a99190610de9565b42106109c3578160026109bc9190610f04565b6007819055505b5b50505050565b6000600754905090565b60035481565b60065481565b80600860008673ffffffffffffffffffffffffffffffffffffffff1673ffffffffffffffffffffffffffffffffffffffff1681526020019081526020016000206001016000828254610a329190610f5e565b92505081905550600860008573ffffffffffffffffffffffffffffffffffffffff1673ffffffffffffffffffffffffffffffffffffffff168152602001908152602001600020600101546006819055508173ffffffffffffffffffffffffffffffffffffffff166323b872dd8486846040518463ffffffff1660e01b8152600401610abf93929190610ecd565b602060405180830381600087803b158015610ad957600080fd5b505af1158015610aed573d6000803e3d6000fd5b505050506040513d601f19601f82011682018060405250810190610b119190610ea0565b5050505050565b60045481565b60075481565b60025481565b600080fd5b600073ffffffffffffffffffffffffffffffffffffffff82169050919050565b6000610b5a82610b2f565b9050919050565b610b6a81610b4f565b8114610b7557600080fd5b50565b600081359050610b8781610b61565b92915050565b600080600060608486031215610ba657610ba5610b2a565b5b6000610bb486828701610b78565b9350506020610bc586828701610b78565b9250506040610bd686828701610b78565b9150509250925092565b6000819050919050565b610bf381610be0565b82525050565b6000602082019050610c0e6000830184610bea565b92915050565b610c1d81610be0565b8114610c2857600080fd5b50565b600081359050610c3a81610c14565b92915050565b60008060008060808587031215610c5a57610c59610b2a565b5b6000610c6887828801610b78565b9450506020610c7987828801610b78565b9350506040610c8a87828801610b78565b9250506060610c9b87828801610c2b565b91505092959194509250565b60008060408385031215610cbe57610cbd610b2a565b5b6000610ccc85828601610b78565b9250506020610cdd85828601610b78565b9150509250929050565b600060208284031215610cfd57610cfc610b2a565b5b6000610d0b84828501610b78565b91505092915050565b610d1d81610b4f565b82525050565b6000606082019050610d386000830186610d14565b610d456020830185610bea565b610d526040830184610bea565b949350505050565b7f4e487b7100000000000000000000000000000000000000000000000000000000600052601260045260246000fd5b7f4e487b7100000000000000000000000000000000000000000000000000000000600052601160045260246000fd5b6000610dc382610be0565b9150610dce83610be0565b925082610dde57610ddd610d5a565b5b828204905092915050565b6000610df482610be0565b9150610dff83610be0565b9250827fffffffffffffffffffffffffffffffffffffffffffffffffffffffffffffffff03821115610e3457610e33610d89565b5b828201905092915050565b6000604082019050610e546000830185610d14565b610e616020830184610bea565b9392505050565b60008115159050919050565b610e7d81610e68565b8114610e8857600080fd5b50565b600081519050610e9a81610e74565b92915050565b600060208284031215610eb657610eb5610b2a565b5b6000610ec484828501610e8b565b91505092915050565b6000606082019050610ee26000830186610d14565b610eef6020830185610d14565b610efc6040830184610bea565b949350505050565b6000610f0f82610be0565b9150610f1a83610be0565b9250817fffffffffffffffffffffffffffffffffffffffffffffffffffffffffffffffff0483118215151615610f5357610f52610d89565b5b828202905092915050565b6000610f6982610be0565b9150610f7483610be0565b925082821015610f8757610f86610d89565b5b82820390509291505056fea2646970667358221220b9c2ac15b4230738a6dac131a2b605e77ee298df96835bf60d3c3971770d781c64736f6c63430008090033",
  "linkReferences": {},
  "deployedLinkReferences": {}
}